:100000000C94ED0B0C94150C0C94150C0C94150C15
:100010000C94150C0C94150C0C94150C0C94150CDC
:100020000C94150C0C94150C0C94150C0C94150CCC
:100030000C94150C0C94150C0C94150C0C94150CBC
:100040000C9479230C94150C0C9447230C942123C5
:100050000C94150C0C94150C0C94150C0C94150C9C
:100060000C94C3230C94150C05A84CCDB2D44EB9F6
:100070003836A9020C50B9918688083CA6AAAA2A4B
:10008000BE000000803F4E414E494E495459494EF2
:1000900046CDCCCC3D0AD7233C17B7D13877CC2BF3
:1000A000329595E6241FB14F0A000020410000C898
:1000B0004200401C4620BCBE4CCA1B0E5AAEC59D19
:1000C0007400407A10F35A00A0724E18090010A56F
:1000D000D4E80000E87648170000E40B5402000062
:1000E000CA9A3B000000E1F50500008096980000E8
:1000F0000040420F000000A0860100000010270011
:10010000000000E803000000006400000000000A96
:1001100000000000000100000000002C76D888DC00
:10012000674F0823DFC1DFAE59E1B1B796E5E3E4DD
:1001300053C63AE651997696E8E6C28426EB898C56
:100140009B62ED407C6FFCEFBC9C9F40F2BAA56FB8
:10015000A5F490055A2AF75C936B6CF9676DC11B87
:10016000FCE0E40D47FEF520E6B500D0ED902E034F
:1001700000943577050080841E080000204E0A0098
:100180000000C80C333333330F986E12831141EFE4
:100190008D2114893BE65516CFFEE6DB18D1844B42
:1001A000381BF77C1D901DA4BBE424203284725EB2
:1001B000228100C9F124ECA1E53D27EAE00000001E
:1001C000003AB80000C44244C049249064484460E6
:1001D000000F84210F8000089451421000089421E0
:1001E0004880000092AAAAAA440000089451420044
:1001F00000252949C044E44460001D060B800349E2
:1002000020001D293842003929721000192949801F
:100210000039294A400000FC9292929200AAA884D8
:10022000254E52404124948AA88439294A40001D11
:1002300029384C24E4444000192F41C0109D29491D
:10024000C000192849808439294B80001C274BC0E5
:1002500088000000000003E02295100000C924B0CF
:1002600088444220D24930F82108420F808A25086C
:100270002082008A250852288088CA554AA552A89B
:1002800088008A28A25142008A28A28A2700F88280
:100290000820820072281C0A2700F228BC922880BD
:1002A000790A1428531B00F228BC820800790A142A
:1002B00028509E008B2CAA9A688082C6C6AAAAAA39
:1002C0009200820820820F808A2928D228801084F8
:1002D000214980AAA88A28BE8A2880309204E84949
:1002E0000C00F421C84200FA083E820F80E248A2C6
:1002F0008A4E00722820822700F228BE8A2F0072C0
:1003000028A2FA28803E1049AA9AA5268819F872D0
:10031000208C2002000418264000000F80F8000006
:100320000099060800080A08087228A278270072B7
:10033000289C8A2700F82108210400720F228A27AE
:1003400000790F220A270010C524F8410072208C82
:100350000A2700722084210F8026A222207228A260
:100360008A270022444880000800003E0000000068
:100370000A00823E208000A4A00000421112402406
:10038000888420A8003090C309515D0044A4A8547B
:100390001A2A440021CA3E2AA708514F94F9450061
:1003A000AAA00000AA8800BB01040400BF01060641
:1003B00000C501040400C901030300CC01040400CA
:1003C000D001060600D601060600DC01060600E2A2
:1003D00001080800EA01060600F001050500F50124
:1003E000040400F901050500FE01030300010205F4
:1003F000050006020505000B0205050010020505B3
:100400000015020808001D020202001F0205050077
:100410002402030300270202020029020505002E20
:1004200002050500330204040037020505003C0202
:10043000050500410205050046020505004B0205C1
:10044000050050020303005302050500580205058C
:10045000005D020303006002040400640203030061
:1004600067020606006D02060600730206060079A2
:1004700002090900820206060088020606008E02B2
:1004800006060094020606009A02060600A002076D
:100490000700A702060600AD02070700B402060621
:1004A00000BA02080800C202060600C802060600DA
:1004B000CE02050500D302020200D502060600DBCB
:1004C00002070700E202050500E702060600ED024A
:1004D000060600F302060600F902060600FF020601
:1004E000060005030A0A000F0306060015030505AA
:1004F000001A03060600200305050025030202007A
:10050000270302020029030606002F030606003512
:10051000030606003B0306060041030606004703E8
:100520000606004D030606005303060600590304A1
:1005300004005D030606006303040400670302026F
:100540000069030606006F0302020071030606003D
:1005500077030404007B030404007F030404008386
:100560000302020085030707008C030808009403B8
:100570000606009A03060600A003040400A4030272
:100580000200A603020100000000000000000000BD
:100590000000000C0FE4F00000000000000000006C
:1005A000F0F1E1C3870E1C383061C3870E1C38712F
:1005B000E3CF00000739CE739CE739CE739CE7394F
:1005C000CE0079E3C70E1C3870E183070E1C38702B
:1005D000E1C3C787800000000000000000000000A9
:1005E00000003FF8FFF3FFC01F03FC7FE3FC0F8018
:1005F0003FFCFFF1FFC00000000000000000000011
:10060000000000000000000000381CE07381CE07ED
:10061000381CE07381CE073FFCFFF1FFC00701FCEF
:100620000FF03F800000000000000000000000000C
:10063000383CF1F3E7C3FC07E00F007E03FC3E7C8F
:10064000F1F383C000000000000000000000000083
:100650000000000000000000000000070E1CE1C3C5
:100660009C3873870E70E1CE1C39C3873870E7FF62
:10067000FCFFFF8FFFE00000000000000000000012
:10068000000000000000000000000000380E707143
:10069000C1C70E0E3838E06701DC07E00F803E006E
:1006A000000000000000000000000000000000004A
:1006B000000000381CE07381CE07381CE07381CE47
:1006C000073FFCFFF1FF8000000000000000000079
:1006D00000001C387CF1E3870E1C387CF8F0000029
:1006E00000000000000000000000000000001FFCEF
:1006F000FFF3FF8E003FF8FFF3FFC0073FFCFFF35F
:10070000FF8000000000000000000000000000006A
:1007100000FEFE7F381C0E070381C0E07000000061
:1007200000000000000000000000000000001FF8B2
:10073000FFF3FFCE07381CE07381CE073FDCFE716C
:10074000F9C007001E007001C0000000000000009A
:1007500000000000001FF8FFF3FFCE07381CE07315
:1007600081CE0739FCEFF3BF8E003800E003800034
:100770000000000000000000000000001FF8FFF370
:10078000FFCE07381CE07381CE073FFCFFF1FF80EE
:100790000000000000000000000000000000000059
:1007A0000000001FF8FFF3FFCE07381CE07381CE76
:1007B00007381CE07381C00000000000000000004A
:1007C000000000000000000000000000000003FF27
:1007D000F8FFFF9FFFF3870E70E1CE1C39C3873807
:1007E00070E70E1CE1C39C387000000000000000A0
:1007F0000000000001CE739CE739CE739CE7000037
:10080000000000000001C00E007003801C70E707AC
:100810003839C1FF0FFC7FE3871C1CE0E703800031
:1008200000000000000001CC601CE739CE739CE79B
:1008300039CE600001CC601CE739CE739CE7000024
:100840000000000000003800E003800E003FF8FFC9
:10085000F3FFCE07381CE07381CE07381CE07381AC
:10086000C0000000000000000000000000000000C8
:10087000000000001FF8FFF3FFCE07381CE0738173
:10088000CE073FDCFE71F9C00701FC0FF03F80008E
:10089000001EF3CE3CF3CE38E38E38E38000000038
:1008A0000000000000000000000000001FF8FFF33F
:1008B000FFCE073BFCEFF3BF8E003FF0FF81FE0051
:1008C000000000000000000000000000001C00709C
:1008D00001C0071FDCFF73F9CE07381CE07381CE1F
:1008E000073FFCFFF1FF8000000000000000000057
:1008F000000000000000000007FCFF8FF8E00E0081
:10090000E00E00E00FFCFFC7FC000000000000004C
:10091000000000003800E003800E0039F8EFF3BF5C
:10092000CE07381CE07381CE073FFCFFF1FF80004B
:1009300000000000000000000000000000000000B7
:1009400000001FF8FFF3FFCE07381CE07381CE07CD
:100950003FDCFF71F9C00000000000000000000053
:100960000000000000000000000000000000000087
:100970000000000000000000000000000000000077
:100980000000000000000000000000000000000067
:1009900000000000000000000000000FFF3FFC000E
:1009A000000000080703E0D863306000000000008A
:1009B000000000000000000000000000000000F83F
:1009C000F1E1C3870E1C3870E1C3870E1C3871E358
:1009D000CF800000000380300700E00E01C0380324
:1009E00080700E00E01C01C0380700700E0000008F
:1009F0000000F9E3C70E1C3870E1C3870E1C387085
:100A0000E1C3C78F800000000000003FF8FFF3FF44
:100A1000C00F007803C01E00F007807C01E00F00CB
:100A20003FFCFFF1FFC000000000000000000000DC
:100A30000000381CE07381CE07381CE07381CE07BC
:100A40003FFCFFF1FFC00707FC3FF0FF8000000004
:100A5000000000000000000000383CF0F3C7C39C19
:100A60000EE01F807C00F007C01F80EE039C3C7CE2
:100A7000F0F383C000000000000000000000000050
:100A8000000070E1CE1C39C3873870E70E1CE1C34B
:100A90009C3873870E70E1CE1C39C3873870E7FF2E
:100AA000FCFFFF8FFFE000000000000000000000DE
:100AB0000000000000380EE071C1C7071C3838E0A4
:100AC000E3838E0E701DC07701F803E00F803E00B7
:100AD000000000000000000000000000381CE0736F
:100AE00081CE07381CE07381CE07381CE07381CEBD
:100AF000073FFCFFF1FF8000000000000000000045
:100B0000000001FFCFFE7FF03801C00E00700380AF
:100B10001C00E007003801C00E007000000000005B
:100B2000000000000000001FFCFFF3FF8E003800F3
:100B3000E003FF8FFF3FFC007001C0073FFCFFF3A5
:100B4000FF800000000000000000000000001FF80F
:100B5000FFF3FFCE07381CE073FFCFFF3FF8E1C380
:100B6000870E0E3838E0E381C0000000000000006E
:100B700000000000001FF8FFF3FFCE07381CE073F1
:100B800081CE07381CE07381CE773FFCFFF1FF80F8
:100B90001C00000000000000000000001FF8FFF330
:100BA000FFCE07381CE07381CE0739FCEFF3BF8E10
:100BB000003800E00380000000000000000000009A
:100BC0000000001FF8FFF3FFCE07381CE07381CE52
:100BD00007381CE07381CE073FFCFFF1FF80000067
:100BE000000000000000000000001FF8FFF3FFCE2F
:100BF00007381CE07381CE07381CE07381CE0738BC
:100C00001CE07381C0000000000000000000000034
:100C10000000003FFF8FFFF9FFFF3870E70E1CE177
:100C2000C39C3873870E70E1CE1C39C3873870E7D8
:100C30000E1CE1C39C3870000000000000000000A2
:100C400000000000000E00E00E00E00E00E00E00CC
:100C5000E00E00E00E00E00FFCFFC7FC000000000B
:100C6000000000000000003870E3838E0E3839C0A9
:100C7000E703FE0FFC3FF0E0E3838E0E381CE073C9
:100C800080E00000000000000000000000001C01E7
:100C9000C01C01C01C01C01C01C01C01C01C01C73C
:100CA000FC7FCFF80000000000000001CE739CE73D
:100CB00039CE739CE70000000000000000381CE003
:100CC0007381CE07381CE073FFCFFF3FFCE07381D8
:100CD000CE07381CE07381C0000000000000000057
:100CE000000000001FFCFFF3FFCE003800E0038F80
:100CF0008E3F39FCE07381CE073FFCFFF1FF80009F
:100D00000000000000000000000007FCFFCFFCE036
:100D10000E00E00FE0FC0FC0E00E00E00E00E00E61
:100D2000000000000000000000000007FCFFCFFCF6
:100D3000E00E00E00FE0FC0FC0E00E00E00FFCFF53
:100D4000C7FC00000000000000000000003FF8FFAA
:100D5000F3FFCE07381CE07381CE07381CE07381A7
:100D6000CE073FFCFFF3FF80000000000000000002
:100D700000000007FCFF8FF8E00E00E00E00E00E20
:100D800000E00E00E00FFCFFC7FC000000000000C8
:100D900000000000003FF0FFE3FF8E0E3838E0E374
:100DA000FF8FFE3FFCE07381CE073FFCFFF3FF8027
:100DB0000000000000000000000000001FF8FFF32A
:100DC000FFCE07381CE07381CE073FFCFFF3FFCE58
:100DD00007381CE07381C000000000000000000024
:100DE0000000000001FFF8FFFF3FFFCE00739FDC13
:100DF000EFF73BFDCEE073BFFCEFFF39FF8E000342
:100E0000FF80FFC01FF00000000000000000000095
:100E100000000000003FF87FF1FFC007001C0070D9
:100E20003FC1FF07F81C0070000007001C007000A5
:100E30000000000000000000000000000000003082
:100E400007807C03F00E0F87C1E030000000000037
:100E50000000000000000000000000000000000092
:100E60000FFCFFCFFC000FFCFFCFFC0000000000D8
:100E70000000000000000000000000000000000072
:100E8000603C1F1F03807C01F00F00600000000029
:100E90000000000000000000000000039CE0000EC5
:100EA000739CC00000000000000739C0001CE70070
:100EB000000000000000001FF8FFF3FFCE07381C01
:100EC000E07381CE073FFCFFF1FFC00701FC0FF08C
:100ED0003F800000000000000000000000000FF84C
:100EE0007FF1FFC7071C1C7071FFCFFF3FFCE07351
:100EF00081CE073FFCFFF1FF8000000000000000F2
:100F00000000000007F87FCFFC01C01C01C01C01DD
:100F1000C01C01C01C01C01C01C01C00000000005E
:100F20000000000000001FF8FFC3FF0E003FF8FFA5
:100F3000F3FFCE07381CE07381CE073FFCFFF1FFC3
:100F4000800000000000000000000000003FFCFFE7
:100F5000F3FFCE003800E003FF8FFF3FFC0070017D
:100F6000C0071FFCFFF3FF8000000000000000002E
:100F700000000000381CE07381CE07381CE073814C
:100F8000CE073FFCFFF1FFC007001C007001C0004E
:100F9000000000000000000000000FF8FFCFFC017F
:100FA000C01C01C1FC1FC3FC01C01C01CFFCFFCF52
:100FB000F800000000000000000000003FF8FFF112
:100FC000FFC007001C0073FFCFFF3FF8E003800E57
:100FD000003FFCFFF3FFC000000000000000000025
:100FE00003879F0E1C3870E1C3870E1C3870000009
:100FF000000000000000001FF8FFF3FFCE07381CC0
:10100000E07381CE07381CE07381CE073FFCFFF10F
:10101000FF80000000000000000000000E01C07012
:101020000E01C0700E0380700E0380700E0380707E
:101030000C03800000000000000000000000000021
:10104000001CE7000000000000000000000000009D
:1010500000000000000007FCFFCFFC0000000000C3
:101060000000000000000000000000000000000080
:101070001EF79CC0000000000000000000001C01E2
:10108000C01C0FF8FF8FF81C01C01C0000000000FE
:10109000000000000000000000020107F040504C7A
:1010A000000000000000000000000000000000F050
:1010B000F1E1C3870E1C3870E1C3870E1C3871E361
:1010C000CF000079E3C70E1C3870E1C3870E1C38CF
:1010D00070E1C3C7878000000EEE400000000000F2
:1010E000000000000000001FE0FF83FC0E0038003D
:1010F000E383FF0FFC3FF0E3838E0E383FFCFFF1EC
:10110000FFC0000000000000000000000000000F11
:10111000838FE1877183B9C1DCC0FEC03EE000600F
:101120000063C077F8339C31CE38E7187F9C0F00FE
:10113000000000000000000000000000901FFCFF05
:10114000E3FF8E903A40E903FF8FFF3FFC097025D3
:10115000C0973FFCFFF3FF809000000000000000FC
:10116000000000000000001CE001CE001CE0039C19
:1011700003FFFC3FFF83FFF8073807FFF07FFF0FF7
:10118000FFF00E6001CE001CE001DE000000000058
:101190000000000000000000066CD9B30000000051
:1011A000000000000000000000000001CE739CE77A
:1011B00039CE701CE7000000008705091900A00562
:1011C000071400B405050E00C205071400D6050E6D
:1011D0002700FD050E270024060E27004B061335B9
:1011E0000080060E2700A7060E2700CE0607140073
:1011F000E2060E2700090709190022070E270049F9
:10120000070E270070070E270097070E2700BE075E
:10121000133500F307050E0001080D24002508050D
:101220000E003308050E0041080E270068080E273F
:10123000008F08061100A0080E2700C7080E27001F
:10124000EE080C21000F090E270036090E27005D5D
:10125000090B1F007C090E2700A3090A1C00BF0907
:10126000071400D3090B1F00F209071400060A0E29
:1012700027002D0A0E2700540A0E27007B0A13357B
:1012800000B00A0E2700D70A0E2700FE0A0D240020
:10129000220B0E2700490B0E2700700B0E2700971C
:1012A0000B0E2700BE0B0E2700E50B0E27000C0CC3
:1012B000133500410C0C2100620C0E2700890C0C28
:1012C0002100AA0C050E00B80C0E2700DF0C0E271B
:1012D00000060D0C2100270D0C2100480D0E2700E3
:1012E0006F0D0C2100900D0E2700B70D0E2700DEAC
:1012F0000D123200100E0E2700370E0B1F00560E77
:101300000C2100770E0B1F00960E050E00A40E0593
:101310000E00B20E0E2700D90E0E2700000F0C2172
:1013200000210F0E2700480F0E27006F0F0E270019
:10133000960F0C2100B70F0E2700DE0F071400F2E6
:101340000F0E270019100B1F003810050E00461055
:101350000C21006710050E0075100C210096100975
:101360001900AF10071400C310071400D710040BA6
:1013700000E2100E27000911112F0038110E27006E
:101380005F111437009611071400AA11050E00B85A
:1013900011070100EAE0000000003AB80000C44272
:1013A00044C049249064484460000F84210F8000A9
:1013B0000894514210000894214880000092AAAA83
:1013C000AA440000089451420000252949C044E481
:1013D0004460001D060B80034920001D293842008F
:1013E0003929721000192949800039294A40000022
:1013F000FC9292929200AAA884254E5240412494D5
:101400008AA88439294A40001D29384C24E44440E4
:1014100000192F41C0109D2949C000192849808416
:1014200039294B80001C274BC088000000000003B6
:10143000E02295100000C924B088444220D24930EF
:10144000F82108420F808A25082082008A25085248
:10145000288088CA554AA552A888008A28A25142E5
:10146000008A28A28A2700F8820820820072281C9D
:101470000A2700F228BC922880790A1428531B00FE
:10148000F228BC820800790A1428509E008B2CAAEE
:101490009A688082C6C6AAAAAA9200820820820FF1
:1014A000808A2928D228801084214980AAA88A28E5
:1014B000BE8A2880309204E8490C00F421C842001A
:1014C000FA083E820F80E248A28A4E0072282082EB
:1014D0002700F228BE8A2F007228A2FA28803E1028
:1014E00049AA9AA5268819F872208C2002000418AF
:1014F000264000000F80F800000099060800080A46
:1015000008087228A278270072289C8A2700F821F0
:1015100008210400720F228A2700790F220A27006F
:1015200010C524F8410072208C0A27007220842103
:101530000F8026A222207228A28A270022444880F7
:10154000000800003E000000000A00823E208000EB
:10155000A4A000004211124024888420A8003090EA
:10156000C309515D0044A4A8541A2A440021CA3E6C
:101570002AA708514F94F94500AAA00000AA8800A4
:10158000941304040098130606009E13040400A29A
:1015900013030300A513040400A913060600AF13E8
:1015A000060600B513060600BB13080800C31306A1
:1015B0000600C913050500CE13040400D213050567
:1015C00000D713030300DA13050500DF1305050038
:1015D000E413050500E913050500EE13080800F6FD
:1015E00013020200F813050500FD130303000014A5
:1015F000020200021405050007140505000C14047E
:101600000400101405050015140505001A1405053D
:10161000001F140505002414050500291403030008
:101620002C14050500311405050036140303003998
:10163000140404003D14030300401406060046147D
:101640000606004C1406060052140909005B140635
:101650000600611406060067140606006D140606EF
:1016600000731406060079140707008014060600AC
:1016700086140707008D1406060093140808009BC3
:1016800014060600A114060600A714050500AC14F4
:10169000020200AE14060600B414070700BB1405CE
:1016A0000500C014060600C614060600CC14060683
:1016B00000D214060600D814060600DE140A0A003A
:1016C000E814060600EE14050500F314060600F9FA
:1016D00014050500FE1402020000150202000215A6
:1016E00006060008150606000E1506060014150667
:1016F00006001A1506060020150606002615060621
:10170000002C1506060032150404003615060600E6
:101710003C1504040040150202004215060600486C
:10172000150202004A15060600501504040054155F
:1017300004040058150404005C150202005E15073D
:10174000070065150808006D1506060073150606E6
:101750000079150404007D150202007F15020100C6
:101760000000000800020100000304070000000060
:101770000000000000000000240027002A000000F4
:101780000000250028002B0043002500494E41326F
:101790003236204E4F5420434F4E4E45435445441D
:1017A00000424D57000000000023002600290004DD
:1017B00004040404040404020202020202030303F8
:1017C00003030301020408102040800102040810F2
:1017D0002001020408102000E22411241FBECFEFD4
:1017E000D8E0DEBFCDBF14E0A0E0B1E0E8E0F1E773
:1017F00002C005900D92AE3DB107D9F726E0AEEDDF
:10180000B4E001C01D92A93EB207E1F71BE0CDEEA6
:10181000DBE004C02197FE010E94DB35CC3ED107FE
:10182000C9F70E944F250C9482380C940000CF9287
:10183000DF92EF92FF92CF93DF93B0919A06A0E0F0
:101840008111AB2F80919B0690E0880F991FAC010E
:101850004B55584EC090A006D090A106E090A2062D
:10186000F090A30630E020E0FA01C591D491E88120
:10187000B90190E080E0EB23EA130AC02F5F3F4FED
:101880006C157D058E059F0578F36FEF7FEFCB011B
:10189000DF91CF91FF90EF90DF90CF900895E0918E
:1018A000E006F091E10690812091E506922B90836D
:1018B0008EBD0DB407FEFDCF089580912E05909149
:1018C0002F05891B990B089508950895AF92BF9233
:1018D000CF92DF92EF92FF920F931F93CF93DF93FC
:1018E0006C017B018B01040F151FEB015E01AE182B
:1018F000BF08C017D10759F06991D601ED91FC914D
:101900000190F081E02DC6010995892B79F7C50179
:10191000DF91CF911F910F91FF90EF90DF90CF90CB
:10192000BF90AF900895FC01538D448D252F30E07A
:10193000842F90E0821B930B541710F0CF960895DC
:1019400001970895FC01918D828D981761F0A28D09
:10195000AE0FBF2FB11D5D968C91928D9F5F9F73CF
:10196000928F90E008958FEF9FEF0895FC01918D85
:10197000828D981731F0828DE80FF11D858D90E0F2
:1019800008958FEF9FEF0895FC01918D228D892F8F
:1019900090E0805C9F4F821B91098F739927089577
:1019A00088EE95E00E94C40C21E0892B09F420E028
:1019B000822F089580E090E0892B29F00E94D00CBE
:1019C00081110C9400000895FC01A48DA80FB92F7B
:1019D000B11DA35ABF4F2C91848D90E001968F7357
:1019E0009927848FA689B7892C93A089B1898C9176
:1019F000837080648C93938D848D981306C00288C5
:101A0000F389E02D80818F7D80830895EF92FF928E
:101A10000F931F93CF93DF93EC0181E0888F9B8D11
:101A20008C8D98131AC0E889F989808185FF15C0CB
:101A30009FB7F894EE89FF896083E889F9898081EE
:101A40008370806480839FBF81E090E0DF91CF91BD
:101A50001F910F91FF90EF900895F62E0B8D10E0DF
:101A60000F5F1F4F0F731127E02E8C8D8E110CC04E
:101A70000FB607FCFACFE889F989808185FFF5CF99
:101A8000CE010E94E40CF1CFEB8DEC0FFD2FF11D88
:101A9000E35AFF4FF0829FB7F8940B8FEA89FB89D6
:101AA00080818062CFCFCF93DF93EC01888D882334
:101AB000B9F0AA89BB89E889F9898C9185FD03C0B1
:101AC000808186FD0DC00FB607FCF7CF8C9185FF96
:101AD000F2CF808185FFEDCFCE010E94E40CE9CFEB
:101AE000DF91CF91089590E0FC01E05AF84E2491E7
:101AF000FC01ED53F84E3491FC01E155F84EE491B0
:101B0000EE23C9F0222339F0233001F1A8F421306B
:101B100019F1223029F1F0E0EE0FFF1FE258F84EE4
:101B2000A591B4918FB7F894EC91611126C03095CE
:101B30003E233C938FBF08952730A9F02830C9F089
:101B4000243049F7809180008F7D03C08091800010
:101B50008F7780938000DFCF84B58F7784BDDBCF14
:101B600084B58F7DFBCF8091B0008F778093B000DC
:101B7000D2CF8091B0008F7DF9CF3E2BDACFCF93BB
:101B8000DF9390E0FC01ED53F84E24918155984E7F
:101B9000FC0184918823D1F090E0880F991FFC010B
:101BA000EC58F84EA591B491FC01E258F84EC5915D
:101BB000D491623071F49FB7F8943C91822F809554
:101BC00083238C93E8812E2B28839FBFDF91CF91B5
:101BD00008958FB7F894EC912E2B2C938FBFF6CFEE
:101BE0003FB7F8948091250590912605A09127058F
:101BF000B091280526B5A89B05C02F3F19F0019686
:101C0000A11DB11D3FBFBA2FA92F982F8827BC0156
:101C1000CD01620F711D811D911D42E0660F771F7E
:101C2000881F991F4A95D1F708958F929F92AF927E
:101C3000BF92CF92DF92EF92FF924B015C010E9424
:101C4000F00D6B017C010E94F00D6C197D098E096D
:101C50009F09683E734081059105A8F321E0821A2F
:101C60009108A108B10888EEC80E83E0D81EE11CD7
:101C7000F11C81149104A104B10429F7FF90EF90A5
:101C8000DF90CF90BF90AF909F908F900895CF92AC
:101C9000DF92EF92FF920F931F93CF93DF93CDB715
:101CA000DEB7C054D1400FB6F894DEBF0FBECDBF33
:101CB0002FB7F89480917F0590918005A0918105C0
:101CC000B09182052FBF40919C0650919D06609176
:101CD0009E0670919F068C019D01041B150B260B1F
:101CE000370BB901A801403D57406105710590F4DB
:101CF0008091A406C05CDE4F0FB6F894DEBF0FBE25
:101D0000CDBFDF91CF911F910F91FF90EF90DF90AA
:101D1000CF90089580939C0690939D06A0939E0675
:101D2000B0939F0610929706109296061092950611
:101D3000109294061092930662E0809198060E9499
:101D4000BF0D61E070E080E090E00E94150E61E060
:101D5000809198060E94BF0D60E0809198060E94D5
:101D6000730D809199068551823020F58BE291E1C7
:101D70000197F1F762E0809198060E94BF0D809173
:101D8000A50690E08230910538F0880F991F880FE2
:101D9000991F05970197F1F7F89480E00E94170CBE
:101DA0006F3F7F4F8F4F9F4F61F41092A40678943E
:101DB00080E0A0CF64E170E080E090E00E94150E2A
:101DC000D9CF81E00E94170C6F3F7F4F8F4F9F4FFD
:101DD00061F38E010F5F1F4F6E018FEBC81A8EEFFC
:101DE000D80A780180E00E94170CF70160837183A4
:101DF0008283938381E00E94170CF70164837583CB
:101E000086839783F8E0EF0EF11CEC14FD0451F784
:101E1000789430E020E0F801C080D180E280F38047
:101E20004481558166817781FFEFCF16DF06EF068B
:101E3000FF0631F04F3F8FEF58076807780719F416
:101E40001092A406B5CFF90183E0F595E7958A9540
:101E5000E1F7ED56F94F8081880FC416D506E606E6
:101E6000F70610F180832F5F3F4F085F1F4F283226
:101E7000310589F64091970620919306809194064A
:101E8000280F3327331F80919506280F311D80912D
:101E90009606820F932F911D99274817190681F6F0
:101EA00081E08093A40626CF8160DCCF20910105DC
:101EB000260F3327331F21323105ECF42091BE0564
:101EC000FC0190E080E0243069F082E00895A09168
:101ED00001052191AC014F515B4FA40FB52FB11DEE
:101EE0002C930196861798F380910105680F6093F3
:101EF000010580E0089581E008951092BE0581E01B
:101F00008093BD051092980561E082E10E94730DF7
:101F100061E083E10E94730DE9EBF0E080818E7F48
:101F2000808380818D7F808388E48093B80085E4FE
:101F30008093BC000895CF93DF9391E09093E004E9
:101F40008823B9F0C091B800D091BA008091BC004C
:101F50008A7B8093BC0060E082E10E94730D60E0A8
:101F600083E10E94730D0E947D0FD093BA00C0934D
:101F7000B800DF91CF9108958F929F92AF92BF9258
:101F8000CF92DF92EF92FF920F931F93CF93DF9345
:101F9000D091E705D13208F0D7C0182FC091E605DF
:101FA0000E94F00D6B017C018091BE0581116BC018
:101FB00082E08093BE051093BD058FEF8093BC0532
:101FC0001092BB05D093BA05A6ECB5E0EAE9F5E0BE
:101FD00080E0D81391C01092990580919905CC0F9B
:101FE000C82BC093990580919805813009F088C06D
:101FF000109298050E94F00D6B017C01809199056B
:102000008093BB008091C0059091C105A091C2054D
:10201000B091C305892B8A2B8B2BA1F00E94F00D68
:102020000091C0051091C1052091C2053091C305F2
:102030006C197D098E099F090617170728073907AC
:1020400008F442C08091BC0083FDD8CF85EC80931A
:10205000BC000E94F00D6B017C018091BE058230B6
:1020600009F450C08091BC058F3F09F46FC0809186
:10207000BC05803209F46CC08091BC05803309F442
:1020800069C084E026C08091C0059091C105A091EF
:10209000C205B091C305892B8A2B8B2B09F484CF01
:1020A0000E94F00D8090C0059090C105A090C205DF
:1020B000B090C3056C197D098E099F098616970695
:1020C000A806B90608F070CF8091BF050E949B0F4B
:1020D00085E01092C5051092E7051092C405DF91C6
:1020E000CF911F910F91FF90EF90DF90CF90BF9015
:1020F000AF909F908F9008959D9191938F5F69CF3E
:1021000085EEA5CF8091C0059091C105A091C20533
:10211000B091C305892B8A2B8B2B09F49ECF0E948B
:10212000F00D0091C0051091C1052091C2053091BC
:10213000C3056C197D098E099F0906171707280723
:10214000390708F08ACFC0CF81E0C3CF80E0C1CF8C
:1021500082E0BFCF83E0BDCF0895E0912F0580914D
:102160002E05E81730F4F0E0E05DFA4F808190E052
:1021700008958FEF9FEF089590912F0580912E0580
:102180002FEF3FEF981748F4E92FF0E0E05DFA4FAA
:10219000208130E09F5F90932F05C9010895CF9271
:1021A000DF92EF92FF920F931F93CF93DF937C0107
:1021B000CB018A012091C405222389F0EB016B0138
:1021C000C40ED51ECC15DD0569F06991D701ED91DE
:1021D000FC910190F081E02DC7010995F3CF642FA8
:1021E0000E94560FC801DF91CF911F910F91FF9070
:1021F000EF90DF90CF900895CF93DF931F92CDB7EC
:10220000DEB769832091C4052223F9F02091E70508
:10221000203258F021E030E0FC013383228390E04B
:1022200080E00F90DF91CF9108958091C505E82F50
:10223000F0E0EA53FA4F998190838F5F8093C50550
:102240008093E70581E090E0ECCF61E0CE0101965C
:102250000E94560FF7CFCF93DF93EB019091830548
:1022600021E02093C4059093E6051092C5051092D5
:10227000E705682F85E896E00E94FC106D2F85E841
:1022800096E00E94FC106C2F85E896E00E94FC10FE
:1022900081E0DF91CF910C94BC0FCF93DF93EC01E1
:1022A000CD2FDD27C695C695C695AFE0B2E0CA9F93
:1022B000F001CB9FF00DDA9FF00D11247796C6E068
:1022C000F695E795CA95E1F7EB01E883FC01D5E0C7
:1022D000F695E795DA95E1F7EF73FF27C3E0D1E0D4
:1022E000EC9FB001ED9F700DFC9F700D11246F5D90
:1022F0007F4FE6E076956795EA95E1F7FA0160830E
:10230000AC014F7155274A9FC0014B9F900D5A9FBA
:10231000900D11244796F6E096958795FA95E1F78A
:10232000E9018883DF91CF910895DC01DA96ED9180
:10233000FC91DB979081DF968C91892B80837EBD09
:102340000DB407FEFDCF6EBD0DB407FEFDCF0895A1
:10235000DC01DA96ED91FC91DB979081DF968C9110
:102360008095892380836EBD0DB407FEFDCF08954F
:10237000AF92BF92CF92DF92EF92FF920F931F9393
:10238000CF93DF93EC01EAA5F0E0EE0FFF1FE456D8
:10239000FB4FE080F12C5701A60EB71EE20EF31E94
:1023A000618170E06B01C40ED51E060F171F6AE233
:1023B000CE010E94A811B501CE010E949511B7016E
:1023C000CE010E9495116BE2CE010E94A811B601C8
:1023D000CE010E949511B801CE010E9495116CE2C8
:1023E000CE01DF91CF911F910F91FF90EF90DF9081
:1023F000CF90BF90AF900C94A811EF92FF920F93E3
:102400001F93CF93DF93EC0179018A010F5F1F4F78
:102410009B012F5F3F4F0E94B811B701CE01DF91A2
:10242000CF911F910F91FF90EF900C949511CF9247
:10243000DF92EF92FF920F931F93CF93DF937C0174
:10244000E90168018A01020F131F015011099B0164
:102450000E94B811B601C7010E94951121971C1660
:102460001D06C4F3DF91CF911F910F91FF90EF9064
:10247000DF90CF900895CF92DF92EF92FF920F936B
:102480001F93CF93DF937C01E90168019B012C0F1F
:102490003D1F215031098A010E94B811B601C701C0
:1024A0000E94951121971C161D06C4F3DF91CF9150
:1024B0001F910F91FF90EF90DF90CF900895DC0176
:1024C000DA96ED91FC91DB979081DF968C91892BC8
:1024D0008083215031094109510948F00DB407FEAC
:1024E000FDCF7EBD0DB407FEFDCF6EBDF2CF0DB4A6
:1024F00007FEFDCF0895FC01228D2130F9F42FE96C
:10250000260F2A3108F46052FC01A685B7852C916C
:1025100030E090E080E082179307C4F4AC01440FF0
:10252000551F480F591F1196ED91FC911297E40F1A
:10253000F51F4081461761F00196EDCF223021F75B
:102540002FEB260F2A3100F7605EDECF8FEF9FEF73
:102550000895CF93DF93EC01D093B506C093B406F2
:102560008F818093C00660E286EA96E00E947B122B
:1025700097FD16C0FC01EE0FFF1F8E0F9F1FE98114
:10258000FA81E80FF91F0180F281E02D3296E49183
:10259000F0E0F093B306E093B206DF91CF91089597
:1025A000C4E9D4E0D9CF2F923F924F925F926F92BD
:1025B0007F928F929F92AF92BF92CF92DF92EF92D3
:1025C000FF920F931F93CF93DF93CDB7DEB7629740
:1025D0000FB6F894DEBF0FBECDBF5C0139014801D4
:1025E000223031050CF016C102301105ECF49701D0
:1025F000C5010E94FD1162960FB6F894DEBF0FBEB2
:10260000CDBFDF91CF911F910F91FF90EF90DF90A1
:10261000CF90BF90AF909F908F907F906F905F9082
:102620004F903F902F90089587019401C5010E941B
:102630001712E1CF8401040F151F015011099301F6
:10264000260F371F21503109C5010E94B811EC1423
:10265000FD0409F4CFC09E012E5F3F4FAE014C5FD9
:102660005F4FBE016A5F7F4FC7010E944D119E01FF
:102670002F5F3F4FAE014D5F5F4FBE016B5F7F4FDE
:10268000C6010E944D11312C212CC401B0E0A0E004
:102690008B879C87AD87BE87C301770CAA0BBB0BCA
:1026A0008F87988BA98BBA8BB10190E080E00E9454
:1026B0006F326B017C016B857C858D859E850E94C8
:1026C0006F329B01AC01C701B6010E9476346B01E9
:1026D0007C01AC019B0160E070E080E89FE30E9418
:1026E00004342B013C016E8170E090E080E00E9498
:1026F0007132A30192010E94D0326F83788789875B
:102700009A876D8170E090E080E00E947132A701AD
:1027100096010E94D0329B01AC016F81788589853A
:102720009A850E9405340E94EF34062F10E0102F86
:1027300000270027187F6C8170E090E080E00E9405
:102740007132A30192010E94D0326F83788789870A
:102750009A876B8170E090E080E00E947132A7015F
:1027600096010E94D0329B01AC016F8178858985EA
:102770009A850E9405340E94EF3498E0699FB00169
:102780001124607E7770062B172B6A8170E090E031
:1027900080E00E947132A30192010E94D0322B018D
:1027A0003C01698170E090E080E00E947132A701F5
:1027B00096010E94D0329B01AC01C301B2010E947C
:1027C00005340E94EF3470E093E0759567959A9513
:1027D000E1F7602B712B2F85388949895A89C5010A
:1027E0000E945F12AFEF2A1A3A0A8214930409F08A
:1027F0005BCF01CF689C9001699C300D789C300DB7
:102800001124032E000C440B550BB701C5010E9487
:102810005F12F1CE023011050CF00CCF870193014D
:10282000C5010E943B12E7CE08958CBD9DBD089561
:102830002F923F924F925F926F927F928F929F92D0
:10284000AF92BF92CF92DF92EF92FF920F931F93BE
:10285000CF93DF9300D000D0CDB7DEB79C838B83BE
:102860007B016A015901480180919106909192067D
:102870000E941514E091DE06F091DF0690818091B0
:10288000E4068095892380834B815C81EA14FB04F4
:1028900009F045C04C155D056CF49601241B350B01
:1028A0002F5F3F4FA7016B817C8186EA96E00E94F3
:1028B0003B1215C08B819C81C816D90644F49C013B
:1028C0002C193D092F5F3F4FA701B601EECF9801AC
:1028D000A7016B817C8186EA96E00E94FD11E09160
:1028E000DE06F091DF0680819091E406892B8083DB
:1028F0000F900F900F900F90DF91CF911F910F913C
:10290000FF90EF90DF90CF90BF90AF909F908F900F
:102910007F906F905F904F903F902F9008954C154F
:102920005D05B9F4EA14FB046CF495012E193F0916
:102930002F5F3F4FA7016B817C8186EA96E00E9462
:102940001712CDCF97012A193B092F5F3F4FA501E1
:10295000F2CF95012E193F0937FF03C0319521951C
:102960003109C6014B815C81841B950B97FF03C025
:10297000919581959109821793075CF45C2D4D2DFB
:102980006501A52EB42E5B814C81FC82EB82E52E85
:10299000F42E4B815C81C416D5065CF45E2D4F2D60
:1029A0007501A52EB42E5B814C81DC82CB82C52EB5
:1029B000D42E16014B815C81241A350A25014E184C
:1029C0005F0857FE03C0519441945108310137FE0E
:1029D00003C05FEF651A750A75946794EA14FB04E7
:1029E00074F1AA24AA94BA2C821793070CF042C05F
:1029F0004B815C81C416D5066CF164187508CA0158
:102A000001969A83898377FE17C09A018B819C81F6
:102A1000281B390BC1F02F5F3F4F8401AC01B70178
:102A200086EA96E00E94171249815A815C834B83A3
:102A3000EA0CFB1C620C731C49815A81DBCFAA246F
:102A4000A394B12CD1CF9401B70186EA96E00E94FD
:102A5000FD11EACF8B819C810196841795070CF0BC
:102A60003ECF9A018B819C81281B390B8401AC01DC
:102A7000B70163CF6B817C81C616D70654F1641809
:102A80007508AB014F5F5F4F5A83498377FE17C0CC
:102A90009B018B819C81281B390BA1F02F5F3F4F3D
:102AA0008401A701BC0186EA96E00E943B1249819D
:102AB0005A815C834B83EA0CFB1C620C731C69819A
:102AC0007A81DACF9401A70186EA96E00E94FD118F
:102AD000EECF8B819C810196861797070CF0FFCE75
:102AE0009B018B819C81281B390B8401A701BC01B0
:102AF000DCCE0F931F93CF93DF93EC018B01452B1B
:102B0000E9F4CE3087E2D80731F441E050E08EE0BE
:102B100097E20E9479158091AA069091AB06C8179A
:102B2000D9073CF48091AC069091AD0608171907BF
:102B3000B4F0DF91CF911F910F910895CE3087E2CD
:102B4000D80709F040C08091AC069091AD06861779
:102B500097077CF381E08093BD06D0E0C0E08091D0
:102B6000D106882329F09C2F8D2FE801092F182FDB
:102B7000D093AF06C093AE061093B1060093B00693
:102B800080919106909192060E941514E091DE06C4
:102B9000F091DF0690818091E406809589238083FF
:102BA0009E0150E040E070E060E086EA96E00E941E
:102BB000B811E091DE06F091DF0680819091E40685
:102BC000892B8083B6CF50E040E0CE010E9479157A
:102BD000C6CF8F929F92AF92BF92CF92DF92EF9229
:102BE000FF920F931F93CF93DF93EC015B014A0198
:102BF00089012091AA063091AB0682179307ECF564
:102C00008091AC069091AD0668177907B4F5AE01D6
:102C1000480D591D241735071CF449018C1A9D0ACB
:102C20009501200F311F821793071CF48C010A199C
:102C30001B0980919106909192060E941514E091D3
:102C4000DE06F091DF0690818091E406809589236D
:102C50008083D12CC12CF12CE12C9401A501BE0163
:102C600086EA96E00E94D312E091DE06F091DF063C
:102C700080819091E406892B8083DF91CF911F9111
:102C80000F91FF90EF90DF90CF90BF90AF909F900B
:102C90008F900895CF92DF92EF92FF920F931F9340
:102CA0007C016B0180919106909192060E9415140F
:102CB000E091DE06F091DF0690818091E406809538
:102CC000892380830091AC061091AD062091AA065D
:102CD0003091AB06015011092150310950E040E01C
:102CE00070E060E086EA96E0EC14FD0491F00E944A
:102CF000D312E091DE06F091DF0680819091E40628
:102D0000892B80831F910F91FF90EF90DF90CF90E0
:102D100008950E94B8114091AA065091AB06809187
:102D2000AC069091AD06489F9001499F300D589F89
:102D3000300D1124032E000C440B550BB70186EA0D
:102D400096E00E945F12D5CFEF92FF920F931F93F0
:102D5000CF93DF937C018B01C091AC06D091AD067F
:102D6000892B09F04BC0672B09F048C01092CC06A4
:102D70001092CB06D093CE06C093CD0680919106DB
:102D8000909192060E941514E091DE06F091DF0604
:102D900090818091E40680958923808363E386EAAD
:102DA00096E00E94A811B70186EA96E00E9495116C
:102DB000BE0186EA96E00E949511E091E006F0914E
:102DC000E10680819091E506892B80831EBD0DB4BC
:102DD00007FEFDCF0EBD0DB407FEFDCFE091DE0670
:102DE000F091DF0680819091E406892B8083DF914A
:102DF000CF911F910F91FF90EF900895F092CC0624
:102E0000E092CB061093CE060093CD06CE01801B38
:102E1000910B8C01CE19DF09C81BD90BAFCF91E004
:102E20009093D0068091D20687708093D2068091CD
:102E3000D20680648093D2068091D206806280930D
:102E4000D20620E830E03093AB062093AA063093F8
:102E5000AD062093AC069093D1068091D20688608F
:102E60008093D20680919106909192060E9415144B
:102E7000E091DE06F091DF0690818091E406809576
:102E80008923808366E386EA96E00E94A8119091E8
:102E9000D206E091E006F091E10680812091E506FE
:102EA000822B80839EBD0DB407FEFDCFE091DE0630
:102EB000F091DF0680819091E406892B808308954C
:102EC000089590E080E00895CF9310927A05C1E0D4
:102ED000C093C40580E48093E6051092C505109266
:102EE000E70581E00E94BC0F811102C0C0937A0502
:102EF000CF9108952F923F924F925F926F927F925F
:102F00008F929F92AF92BF92CF92DF92EF92FF92F9
:102F10000F931F93CF93DF93CDB7DEB76B970FB6A9
:102F2000F894DEBF0FBECDBF9E838D833B014A87E1
:102F30005B8738872F831801C9862DB73EB7398F35
:102F4000288FC80101966DB77EB7681B790B0FB645
:102F5000F8947EBF0FBE6DBF8DB79EB701969D875B
:102F60008C87E9A9FAA92BA93CA9E217F307C9F0B4
:102F7000AE9C8001AF9C100D112488A9820D932D69
:102F8000911DC89E9001C99E300D1124CBA8DCA8CC
:102F900076014F8158856A857B858D819E810E944F
:102FA000D3122301B301680D791D798B688B50E032
:102FB00040E0B12C20E08A2D90E09F878E873985F4
:102FC000329DF001339DF00D1124FB8FEA8F68894B
:102FD00079896415750509F493C0F201849167E05D
:102FE00070E07C836B83E82FF0E0FF8BEE8BEC8549
:102FF000FD85E20FF11D8E899F890B8002C095959A
:1030000087950A94E2F7382F317030832F5F8170F3
:103010009927480F591F22151304E9F4411551054A
:10302000B1F02416350621F54F81AB9C400D1124DB
:1030300050E0CBA8DCA8E9A8FAA80E851F852A8D48
:103040003B8D6A857B858D819E810E94D312B394CE
:1030500050E040E020E06B817C81615071097C830D
:103060006B836F3F7F4F19F69FEF491A590AAFCF15
:103070002F813885AB9C200D311D11243B8B2A8B71
:103080003A8539834B854A83712C612C812CAC8520
:10309000BD85A60DB71D62147304CCF62C91FD01FD
:1030A000C30128163906BCF33191231306C0281634
:1030B000390619F083940196F4CF682D70E07D8B6A
:1030C0006C8B7985789D40011124222371F0C9A869
:1030D000DAA876010E851F8594014A895B8969818A
:1030E0007A818D819E810E94D3128C899D89680E80
:1030F000791EE981FA81E80DF91DFA83E983C6CFCB
:10310000E88DF98D0FB6F894FEBF0FBEEDBF6B963C
:103110000FB6F894DEBF0FBECDBFDF91CF911F91E8
:103120000F91FF90EF90DF90CF90BF90AF909F9066
:103130008F907F906F905F904F903F902F90089569
:1031400085ED8093BC008091C0059091C105A09150
:10315000C205B091C3050796A11DB11D23E0B69528
:10316000A795979587952A95D1F72091BC0024FDC6
:1031700003C01092BE0508954091C0055091C1054D
:103180006091C2057091C305452B462B472B69F30F
:103190000097A105B10541F025E32A95F1F700005C
:1031A0000197A109B109E1CF8091BF050C949B0F54
:1031B0002F923F924F925F926F927F928F929F9247
:1031C000AF92CF92DF92EF92FF920F931F93CF9324
:1031D000DF93EC013B011A01452B51F4FB010190F7
:1031E0000020E9F731971F01261A370A09F462C255
:1031F0001F89112309F48EC0CE84DF84D601139673
:103200008C917301512C412C882309F456C08C8574
:103210009D85289E2001299E500C389E500C11241B
:103220008D89849D9001859D300D112437FF02C04A
:103230002F5F3F4F35952795F60144818581481BC7
:10324000550B6E89649FC001659F900D112497FDF9
:103250000196959587954BA5143008F0B3C044238B
:1032600009F493C01130D1F58C819D8197FD0196B1
:1032700095958795821B91099B878A873EC06D3003
:10328000E1F06A30D1F0CE010E947B1297FD15C0AB
:10329000FC01EE0FFF1F8E0F9F1FD6011196ED91BF
:1032A000FC91E80FF91F0180F281E02D3296E49144
:1032B0004E0E511CE8894E0E511CC7018619970904
:1032C000821593050CF0ACCFF70161917F0160325C
:1032D000B1F68C859D85480E591EEFCF4E815F81DA
:1032E00057FF02C04F5F5F4F55954795481B5109E7
:1032F00059874887123009F0B7CF8885998597FF9D
:1033000002C0198618868A859B8597FF02C01B8696
:103310001A861F8A80919106909192060E94151438
:10332000E8ADF9AD90818EAD809589238083260C20
:10333000371C2614370409F4B7C1D3016D913D0140
:103340006D30B9F36A3009F075C0EE85FF85848170
:10335000988D890F9BA5911155C02A853B859E8923
:10336000899F802D112490E0280F391F4E815F81A5
:10337000421753070CF498C1198618862A853B8595
:10338000820F931F9B878A87D4CF113059F48C8189
:103390009D8197FD019695958795821B9109998747
:1033A0008887ABCF4E815F8157FF02C04F5F5F4F71
:1033B00055954795481B51095B874A87123009F498
:1033C0009CCFE5CF442379F0143019F48A859B858E
:1033D00051CF48855985481B510959874887153071
:1033E00009F48BCFF3CF143019F488859985D5CFA4
:1033F0004A855B85481B51095B874A87153009F46C
:103400007CCFF3CF288539859D89899F802D112414
:1034100090E0280F391F4C815D81421753070CF44F
:1034200043C128853985820F931F998788871B861A
:103430001A867FCF603209F067C0E8898C859D8548
:103440008E0F911D29893A89EB88FC884BA5411183
:1034500031C0FD89F89F502C11242E153F0519F11C
:10346000888599852C813D81850D911D8217930753
:1034700024F088859985522E581A4A855B8568857F
:103480007985AE85BF8514968C910E89809F8001C9
:103490001124252D30E0FE9F200D311D11246701E0
:1034A000CE010E94D31288859985850D911D99873B
:1034B00088873FCF9E88989E902C11242E153F051B
:1034C000F1F08A859B852E813F81890D911D8217A0
:1034D000930724F08A859B85922E981A48855985F2
:1034E0006A857B85EE85FF8504818D89089F800133
:1034F0001124292D30E06701CE010E94D3128A8564
:103500009B85890D911D3ECFCE010E947B1297FDB8
:1035100010CFAE85BF858C01000F111F080F191F3A
:103520001196ED91FC911297E00FF11F618172816C
:10353000FB013296D4904D2C512C8BA52C813D81D2
:103540004889998D992309F49EC0811178C0888596
:1035500099855D89D59E800D911D1124549F800D04
:10356000911D112482179307A4F0198618862A85C5
:103570003B8514964C91888D480F5527551FEE8931
:10358000E49FC001E59F900D1124820F931F9B873C
:103590008A8742E050E08EED94E00E94B22E609166
:1035A000DE047091DF04AE85BF8511968D919C91EC
:1035B0001297080F191FF80181819281FC0133963F
:1035C000859094909BA514968C91911189C02A8521
:1035D0003B85E82EF12CAE88A9018A9D400D511D36
:1035E00011242E813F81241735070CF45DC02A85F4
:1035F0003B85488559858C898F938B898F938A89E0
:103600008F9389898F9388898F93CD888201CE018A
:103610000E947A17288539859889490E511C4D8951
:10362000449DC001459D900D1124820F931F9987E1
:1036300088870F900F900F900F900F907ACE8A8509
:103640009B855E89D59E800D911D1124549F800D10
:10365000911D1124821793070CF49BCF488559853F
:1036600014962C91888D280F3327331FED89E29F04
:10367000C001E39F900D1124840F951F99878887BF
:103680001B861A8686CF882339F18A859B855E89B9
:10369000D59E800D911D1124549F800D911D1124E4
:1036A000821793070CF475CFE8ADF9AD80819EAD1C
:1036B000892B8083DF91CF911F910F91FF90EF9025
:1036C000DF90CF90AF909F908F907F906F905F90A2
:1036D0004F903F902F900895888599855D89D8CF28
:1036E00028853985E82EF12CCD88D9018C9DA00D37
:1036F000B11D11242C813D812A173B07ACF228858E
:1037000039854A855B858C898F938B898F938A89CC
:103710008F9389898F9388898F93AE888201CE0198
:103720000E947A178A859B8538892E89ED89DE9ECD
:10373000F0011124329FE00DF11D1124E80FF91F53
:10374000FB87EA8776CFCF93DF931F92CDB7DEB7A3
:10375000698341E050E0BE016F5F7F4F0E94D8183F
:1037600081E090E00F90DF91CF910895EF92FF926A
:103770000F931F93CF93DF931F92CDB7DEB77C01DA
:1037800010E000E0F701E00FF11FE491EE2369F093
:10379000E98341E050E0BE016F5F7F4F86EA96E02B
:1037A0000E94D8180F5F1F4FEDCFC8010F90DF9117
:1037B000CF911F910F91FF90EF900895CF93DF93DA
:1037C000EA010E94D818CE01DF91CF910895CF93DE
:1037D000DF93EC0109900020E9F72197C81BD90B72
:1037E000AE01BC0186EA96E00E94D818CE01DF91B6
:1037F000CF9108952F923F924F925F926F927F9256
:103800008F929F92AF92BF92CF92DF92EF92FF92F0
:103810000F931F93CF93DF93CDB7DEB763970FB6A8
:10382000F894DEBF0FBECDBF8E879F872B013A0174
:10383000312C212CCA01B0E0A0E0888B998BAA8B97
:10384000BB8B8CE894E00E94A91292E09093BC0696
:103850009093BB0650E040E061E070E08EE097E2BC
:103860000E9479150E851F852114310409F4B5C015
:1038700082012614370408F0B0C09E01295F3F4F33
:10388000AE01485F5F4FBE01675F7F4F8E859F85AA
:103890000E944D119E012F5F3F4FAE014B5F5F4F66
:1038A000BE016A5F7F4FC2010E944D11B10190E0DD
:1038B00080E00E946F326B017C01688979898A8976
:1038C0009B890E946F329B01AC01C701B6010E9427
:1038D00076346B017C01AC019B0160E070E080E814
:1038E0009FE30E9404344B015C01698570E090E025
:1038F00080E00E947132A50194010E94D0326A8753
:103900007B878C879D876E8170E090E080E00E94CD
:103910007132A70196010E94D0329B01AC016A85E9
:103920007B858C859D850E9405340E94EF34062F8F
:1039300010E0102F00270027187F688570E090E0C6
:1039400080E00E947132A50194010E94D0326A8702
:103950007B878C879D876D8170E090E080E00E947E
:103960007132A70196010E94D0329B01AC016A8599
:103970007B858C859D850E9405340E94EF34A8E0EC
:103980006A9FB0011124607E7770062B172B6F8120
:1039900070E090E080E00E947132A50194010E94E5
:1039A000D0324B015C01698170E090E080E00E94C0
:1039B0007132A70196010E94D0329B01AC01C50172
:1039C000B4010E9405340E94EF3470E093E07595D5
:1039D00067959A95E1F7062B172B1093BA0600937B
:1039E000B9061093B8060093B70661EA77E1CE01F5
:1039F00001960E94BB2ECE0101960E94E71BBFEFED
:103A00002B1A3B0A621473040CF01BCF63960FB69B
:103A1000F894DEBF0FBECDBFDF91CF911F910F9104
:103A2000FF90EF90DF90CF90BF90AF909F908F90DE
:103A30007F906F905F904F903F902F9008952F92BE
:103A40003F924F925F926F927F928F929F92AF922E
:103A5000BF92CF92DF92EF92FF920F931F93CF937B
:103A6000DF93CDB7DEB7EA970FB6F894DEBF0FBE8F
:103A7000CDBF9A8B898B7CA36BA35EA34DA3190149
:103A80001C8F0B8F2401350160962FAD60972FA3FB
:103A900061963FAD619738A7A989BA895E968D90E6
:103AA0009D90AD90BC909197A5019401C701B6017E
:103AB0000E94763420E030E044EB53E40E94D032A0
:103AC0006F83788789879A87A5019401C301B20122
:103AD0000E94763420E030E044EB53E40E94D03280
:103AE0002B013C0120E030E0A9016F8178858985B8
:103AF0009A850E946A3287FF0FC020E030E044EBD5
:103B000053E46F81788589859A850E9405346F8397
:103B1000788789879A87E6CF20E030E0A901C30142
:103B2000B2010E946A3287FF0BC020E030E044EB14
:103B300053E4C301B2010E9405342B013C01ECCFD8
:103B400020E030E044EB53E46F81788589859A85E5
:103B50000E945D3518167CF420E030E044EB53E41D
:103B60006F81788589859A850E9404346F83788770
:103B700089879A87E5CF20E030E044EB53E4C30126
:103B8000B2010E945D3520E030E044EB53E41816AA
:103B90003CF4C301B2010E9404342B013C01EBCF81
:103BA0006F81788589859A850E9476346B017C01C6
:103BB000A30192016F81788589859A850E945D3580
:103BC000A701960118167CF5C501B4010E94D032F8
:103BD0006B017C01B8A5BF93EFA1EF930B8D1C8DFA
:103BE00091014DA15EA16BA17CA189899A890E9456
:103BF0001F1DC12CD12C760120E030E044EB53E4B2
:103C0000C301B2010E947634A989BA895E962D91CA
:103C10003D914D915C9191970E94D0322B013C01D6
:103C20000F900F9039CFC701B6010E9405342BEDDC
:103C30003FE049E450E40E94D0326B017C010E94D5
:103C400071346F8F78A389A39AA3C701B6010E942C
:103C500062356B8B7C8B8D8B9E8B20E030E044EB50
:103C600053E4C301B2010E9476349B01AC010E946F
:103C700005342BED3FE049E450E40E94D0326B0163
:103C80007C010E9471346B877C878D879E87C7017A
:103C9000B6010E9462356B837C838D839E83B10164
:103CA00090E080E00E946F326B017C012F8D38A183
:103CB00049A15AA10E94D0324B015C0120E030E0C2
:103CC00040E85FEB0E946A3287FFABC2C501B401D6
:103CD0000E94E8347A83698320E03EEF4FEF56EC90
:103CE000C501B4010E945D3518160CF09FC2C501D4
:103CF000B4010E94E8347A8F698F2B893C894D8901
:103D00005E89C701B6010E94D0324B015C0120E000
:103D10003EEF4FEF56E40E946A3287FF8CC2C50126
:103D2000B4010E94E834788F6F8B20E03EEF4FEFB4
:103D300056ECC501B4010E945D3518160CF080C226
:103D4000C501B4010E94E834788B6F872B853C85D0
:103D50004D855E85C701B6010E94D0324B015C01E2
:103D6000E981FA81BF01FF0F880B990B0E94713224
:103D7000A50194010E945D35181634F4C501B40103
:103D80000E94E8347A836983298D3A8DB901330F13
:103D9000880B990B0E947132A50194010E946A322E
:103DA00087FF06C0C501B4010E94E8347A8F698F8D
:103DB0002B813C814D815E81C701B6010E94D032CA
:103DC0006B017C01AF89B88DBD01BB0F880B990BCE
:103DD0000E947132A70196010E945D35181634F4D5
:103DE000C701B6010E94E834788F6F8BEF85F889A0
:103DF000BF01FF0F880B990B0E947132A70196013A
:103E00000E946A3287FF06C0C701B6010E94E834EB
:103E1000788B6F8781012B8D3C8D021B130BB801B2
:103E200090E080E00E946F326B017C012F8D38A101
:103E300049A15AA10E94D0324B015C01A981BA81EB
:103E4000BD01BB0F880B990B0E947132A501940133
:103E50000E945D35181634F4C501B4010E94E8349F
:103E60007A836983E98DFA8DBF01FF0F880B990B67
:103E70000E947132A50194010E946A3287FF06C038
:103E8000C501B4010E94E8347A8F698F2B893C897F
:103E90004D895E89C701B6010E94D0324B015C0199
:103EA0002F89388DB901330F880B990B0E9471321D
:103EB000A50194010E945D35181634F4C501B401C2
:103EC0000E94E834788F6F8BAF85B889BD01BB0F36
:103ED000880B990B0E947132A50194010E946A32ED
:103EE00087FF06C0C501B4010E94E834788B6F8754
:103EF0002B853C854D855E85C701B6010E94D03279
:103F00004B015C01E981FA81BF01FF0F880B990B1E
:103F10000E947132A50194010E945D35181634F497
:103F2000C501B4010E94E8347A836983298D3A8DF2
:103F3000B901330F880B990B0E947132A5019401CE
:103F40000E946A3287FF06C0C501B4010E94E834AE
:103F50007A8F698F2B813C814D815E81C701B601CB
:103F60000E94D0326B017C01AF89B88DBD01BB0FBF
:103F7000880B990B0E947132A70196010E945D3552
:103F8000181634F4C701B6010E94E834788F6F8B9D
:103F9000EF85F889BF01FF0F880B990B0E947132E2
:103FA000A70196010E946A3287FF06C0C701B601C9
:103FB0000E94E834788B6F8720E030E044EB52E4D5
:103FC0006F81788589859A850E946A3287FF0CC047
:103FD00020E030E044EB52E4C301B2010E945D35C1
:103FE000181614F4388A2F8620E030E044E353E4B6
:103FF0006F81788589859A850E946A3287FF10C013
:1040000020E030E044E353E4C301B2010E945D3597
:10401000181634F422273327221933093A832983C7
:1040200020E030E047E853E46F81788589859A8500
:104030000E946A3287FF10C020E030E047E853E476
:10404000C301B2010E945D35181634F48827992700
:1040500082199309988F8F8B2B893C894D895E89B2
:104060006F8D78A189A19AA10E9476346FA778AB51
:1040700089AB9AAB20E030E044EB53E4C301B201DA
:104080000E946A32882309F4E0C02B813C814D8173
:104090005E816B857C858D859E850E9476346F8FD1
:1040A00078A389A39AA3009FD001019FB00DB00D02
:1040B0001124BCABABAB229CF001239CF00DF00DA6
:1040C0001124FEABEDAB80919106909192060E9477
:1040D0001514A989BA89D896ED91FC91D997908148
:1040E000DE968C91809589238083E98DFA8D2981D4
:1040F0003A81E217F3070CF4E7C1229FC001239F26
:10410000900D900D112498AF8FABAF88B88C1B86A3
:10411000212C312C1B82912C812C1EA61DA61C8AC1
:104120001B8AABA1BCA12A0F3B1F3AAF29AF8981E3
:104130009A81092E000CAA0BBB0B8B8F9C8FAD8F25
:10414000BE8FAF85B889AA15BB050CF481C1AA9CA6
:10415000C001AB9C900D900D1124EFA9F8AD8E0F0E
:104160009F1F2DA93EA982179307BCF5ABA9BCA937
:104170008A179B0794F120E030E044E353E46F8119
:10418000788589859A851A141B040CF067C00E94F3
:104190006A3287FF22C06B8D7C8D8D8D9E8D0E9433
:1041A00071326B017C01B5010B2C000C880B990B53
:1041B0000E94713269A77AA78BA79CA72FA538A95F
:1041C00049A95AA90E94D0329B01AC01C701B6018E
:1041D0000E946A3218160CF0DEC0FB81FF2309F43E
:1041E00006C1211004C19501215031093EA72DA718
:1041F0000FA118A595018B899C89281B390BAC014F
:10420000ADA1BEA14A0F5B1F69AD7AAD89899A89BC
:104210000E941712B7FE40C1B194A194B1082B803F
:1042200094C0EFEFFFEFFA83E98356CD21E030E849
:104230003A8F298F62CD8FEF9FE7988F8F8B75CD47
:10424000A1E0B0E8B88BAF8781CD80E094E2A4E72D
:10425000B9EC8F8F98A3A9A3BAA325CFA114B10459
:1042600009F477C00E945D351816ECF46B8D7C8DD7
:104270008D8D9E8D0E9471326B017C01B5010B2CDE
:10428000000C880B990B0E9471322FA538A949A9FF
:104290005AA90E94D0329B01AC01C701B6010E940D
:1042A0005D3587FF0DC020E030E044E353E46F81CB
:1042B000788589859A850E946A3218160CF48DCF0C
:1042C00020E030E044E353E4C301B2010E945D35D5
:1042D00018160CF082CF6B8D7C8D8D8D9E8D0E947B
:1042E00071326B017C01B5010B2C000C880B990B12
:1042F0000E9471322F8D38A149A15AA10E94D0325B
:104300009B01AC01C701B6010E946A3218160CF479
:1043100064CF3B81332309F489C0222009F462C0B1
:10432000311089C08DA59EA5AB89BC898A1B9B0BCA
:1043300001978A0D9B1DEF85F8898E179F070CF05A
:104340007DC0322C2B8245015C013FEFA31AB30ADA
:10435000F8CE0E946A32181624F0E981FA81F7FD3E
:1043600036C020E030E0A9016F81788589859A8583
:104370000E946A32811131CF29813A8112161306C7
:104380000CF02BCF20E030E044E353E4C301B20152
:104390000E945D35BECF20E030E044E353E4C3012A
:1043A000B2010E946A3287FF12C02F8D38A149A145
:1043B0005AA169A57AA58BA59CA50E94D0329B0124
:1043C000AC01C701B6010E945D3587FFA2CF20E096
:1043D00030E044E353E4C301B2010E945D3587FD40
:1043E000FCCE97CF332079F13B863B82AECF332092
:1043F00009F4ABCFBB85BB2341F1950128193909DD
:104400000FA118A54DA15EA1480D591D69817A81A2
:10441000EBA1FCA16E0F7F1F89899A890E94171258
:10442000FB81FF2399F13B801B8615C0BC8AAB8AB8
:1044300021E02B838ACF3B86232CD7CF2B86322CAF
:104440002B82450182CF232C80CF3B8654017DCF28
:104450008B81882309F121101FC02F853889AB89F2
:10446000BC892A1B3B0B2F5F3F4FAD01EDA1FEA185
:104470004E0F5F1F0FA118A569817A818BA19CA1A6
:10448000680F791F89899A890E941712E981FA8138
:104490003196FA83E98329CE3320C1F39B85992392
:1044A000A9F32F853889281939092F5F3F4F4DA16E
:1044B0005EA1480D591D0FA118A569817A81ABA194
:1044C000BCA16A0F7B1FDECFA989BA89D896ED916E
:1044D000FC91D9978081DE969C91892B8083EA9606
:1044E0000FB6F894DEBF0FBECDBFDF91CF911F9105
:1044F0000F91FF90EF90DF90CF90BF90AF909F9083
:104500008F907F906F905F904F903F902F90089585
:104510002F923F924F925F926F927F928F929F92D3
:10452000AF92BF92CF92DF92EF92FF920F931F93C1
:10453000CF93DF93CDB7DEB72C970FB6F894DEBFDD
:104540000FBECDBF9A8389837C836B835E834D834B
:1045500038872F831701280184016090C40670906A
:10456000C5068090C6069090C70620E030E0A901FD
:10457000C201B7010E946A32811136C0A4019301C1
:10458000C601B5010E946A3281112EC01F930F939C
:1045900054014301C12CD12C76010F8118852D8146
:1045A0003E814B815C8169817A8186EA96E00E9436
:1045B0001F1D0F900F902C960FB6F894DEBF0FBE04
:1045C000CDBFDF91CF911F910F91FF90EF90DF90C2
:1045D000CF90BF90AF909F908F907F906F905F90A3
:1045E0004F903F902F9008956091C8067091C90632
:1045F000072E000C880B990B0E94713220E030E0EE
:1046000044EB53E40E947634A40193010E94D0321B
:1046100069877A878B879C879B01AC01C601B501AE
:104620000E9405344B015C0129853A854B855C85E8
:10463000C201B1010E9405346B017C011F930F93ED
:10464000ACCF1F920F920FB60F9211242F933F936E
:104650004F935F936F937F938F939F93AF93BF938A
:10466000EF93FF9388EE95E00E94E40CFF91EF91A9
:10467000BF91AF919F918F917F916F915F914F917A
:104680003F912F910F900FBE0F901F9018951F9282
:104690000F920FB60F9211242F938F939F93EF9346
:1046A000FF93E091F805F091F9058081E091FE0516
:1046B000F091FF0582FD1BC09081809101068F5F04
:1046C0008F7320910206821741F0E0910106F0E01D
:1046D000E851FA4F958F80930106FF91EF919F91DA
:1046E0008F912F910F900FBE0F901F901895808182
:1046F000F4CF1F920F920FB60F9211242F933F9376
:104700008F939F93AF93BF9380917F059091800586
:10471000A0918105B09182053091240523E0230FFB
:104720002D3758F50196A11DB11D209324058093C6
:104730007F0590938005A0938105B09382058091B9
:10474000250590912605A0912705B0912805019691
:10475000A11DB11D8093250590932605A0932705E3
:10476000B0932805BF91AF919F918F913F912F9169
:104770000F900FBE0F901F90189526E8230F0296FA
:10478000A11DB11DD2CF1F920F920FB60F9211240F
:104790002F933F934F935F936F937F938F939F9349
:1047A000AF93BF93EF93FF938091B900887F8036DA
:1047B00009F44AC0F0F5883209F4A7C018F5803131
:1047C00009F49BC0B8F4882309F4F9C0883009F4CF
:1047D00094C0FF91EF91BF91AF919F918F917F9185
:1047E0006F915F914F913F912F910F900FBE0F905E
:1047F0001F901895883109F488C0803251F7809352
:10480000BC0514C0803409F49DC040F48033B9F372
:104810008833F9F68093BC0585ECB0C0803509F487
:1048200085C0883509F496C0883499F60E94A0188E
:10483000D0CF883909F48CC038F5883729F050F486
:10484000883611F0803729F683E08093BE051092F8
:10485000230557C0883809F47BC0803919F08038A7
:1048600009F0B7CF80912305803208F071C0E09144
:10487000230581E08E0F809323058091BB00F0E03B
:10488000ED5FFA4F80833DC0803B39F0E0F4803A21
:1048900009F479C0883A09F09CCF84E08093BE0582
:1048A0001092020510920105E0912A05F0912B0566
:1048B00009958091010581110FC081E08093010568
:1048C0001092E10409C0803C09F4A6CF883C09F4A9
:1048D000A3CF883B09F07DCFE091020581E08E0FE8
:1048E00080930205F0E0EF51FB4F80818093BB0085
:1048F000909102058091010529C0809199058093CE
:10490000BB0085EC8093BC0064CF9091BB05809187
:10491000BA05981758F5E091BB0581E08E0F80939A
:10492000BB05F0E0E656FA4F8081E9CFE091BB0588
:1049300081E08E0F8093BB058091BB00F0E0E656CE
:10494000FA4F80839091BB058091BA059817C8F201
:1049500085E8D8CFE091BB0581E08E0F8093BB0541
:104960008091BB00F0E0E656FA4F80838091BD0550
:1049700081115CCF81E08093980584EA8093BC002C
:104980001092BE0526CF85EC8093BC001092BE0528
:1049900080912305803230F4E0912305F0E0ED5F53
:1049A000FA4F10826091230570E0E0912C05F091A0
:1049B0002D0583E095E00995109223050ACF10920A
:1049C000BC0534CFE8EEF5E01382128288EE93E066
:1049D000A0E0B0E084839583A683B78328EA34E01F
:1049E0003183208325EC30E03587248724EC30E0C8
:1049F0003787268720EC30E0318B208B21EC30E0AC
:104A0000338B228B22EC30E0358B248B26EC30E08C
:104A1000378B268B118E128E138E148EE5E8F6E0FE
:104A20001382128284839583A683B7838AEB94E0F2
:104A300091838083E1E9F6E080E580831182E6EAF4
:104A4000F6E0138212828CEC94E0918380838AE0FA
:104A50008093E60689E081AB88E082ABA3E9B6E00B
:104A600082E015968C93159786E116968C9316978F
:104A7000E5ECF7E1E4911796EC931797E1EBF7E19A
:104A8000E4911896EC93189740E85EE360E070E0DC
:104A90001D964D935D936D937C9350970895CF939E
:104AA000DF93CDB7DEB7E4970FB6F894DEBF0FBE45
:104AB000CDBF789484B5826084BD84B5816084BDA7
:104AC00085B5826085BD85B5816085BD80916E00AC
:104AD000816080936E0010928100809181008260DD
:104AE000809381008091810081608093810080911A
:104AF00080008160809380008091B1008460809309
:104B0000B1008091B00081608093B00080917A0004
:104B1000846080937A0080917A00826080937A002A
:104B200080917A00816080937A0080917A00806819
:104B300080937A001092C100E091F805F091F90598
:104B400082E08083E091F405F091F5051082E09118
:104B5000F605F091F7058FEC808310920006E09146
:104B6000FC05F091FD0586E08083E091FA05F09167
:104B7000FB05808180618083E091FA05F091FB055F
:104B8000808188608083E091FA05F091FB05808147
:104B900080688083E091FA05F091FB0580818F7D2C
:104BA00080831092CA0681E08093C1061092D106DC
:104BB0001092C2061092AF061092AE061092B10685
:104BC0001092B0068093BC068093BB061092BD067F
:104BD0001092CC061092CB061092CE061092CD0603
:104BE0001092BE061092B6061092D4061092D3060A
:104BF0002FEF3FEF3093D6062093D5063093BA06B9
:104C00002093B9063093B8062093B7068093BF0669
:104C100040E050E064EB73E44093C4065093C50653
:104C20006093C6067093C70626EA3FEF3093C90625
:104C30002093C8069FEF9093D90690EC9093D206EC
:104C400090E5909391068093920661E08091D7065B
:104C50000E94BF0D61E08091E6060E94BF0D809129
:104C6000E60690E0FC01E155F84EE491F0E0EE0F2D
:104C7000FF1FE258F84E259134913093DF062093C0
:104C8000DE062091D70630E0F901E155F84EE491B7
:104C9000F0E0EE0FFF1FE258F84E4591549150930B
:104CA000E1064093E006FC01ED53F84EE491E093F9
:104CB000E406F901ED53F84EE491E093E5061FB7E1
:104CC000F89480912905811127C0E9EBF7E18491DF
:104CD000EDECF7E19491E82FF0E0EE0FFF1FEC58B8
:104CE000F84EA591B491EC91E92321F461E08AE0BA
:104CF0000E94730D61E08AE00E94BF0D8CB5806157
:104D00008CBD8CB580648CBD61E08DE00E94BF0DD0
:104D100061E08BE00E94BF0D809129058F5F809339
:104D200029051FBFE091DE06F091DF06808190919A
:104D3000E406892B8083E091E006F091E106808112
:104D40009091E506892B80838091D8068F3F21F1D1
:104D500061E00E94BF0D61E08091D8060E94730D52
:104D60006AE070E080E090E00E94150E60E08091C3
:104D7000D8060E94730D6AE070E080E090E00E9427
:104D8000150E61E08091D8060E94730D6AE070E014
:104D900080E090E00E94150E80919106909192061D
:104DA0000E941514E091DE06F091DF06908180915B
:104DB000E40680958923808361E086EA96E00E947C
:104DC000A8116AE770E080E090E00E94150E61E1B2
:104DD00086EA96E00E94A81165E070E080E090E02D
:104DE0000E94150E61EB86EA96E00E94A81180E011
:104DF0000E944F0C86E00E944F0C83E00E944F0CF3
:104E000062EB86EA96E00E94A81181E00E944F0CB6
:104E10008CE20E944F0C8DE20E944F0C63EB86EAFD
:104E200096E00E94A81181E00E944F0C8CE20E9443
:104E30004F0C8DE20E944F0C64EB86EA96E00E94D4
:104E4000A81180E00E944F0C60EC86EA96E00E9478
:104E5000A81182EA0E944F0C82E00E944F0C84E865
:104E60000E944F0C61EC86EA96E00E94A81185EC46
:104E70000E944F0C62EC86EA96E00E94A8118AE03C
:104E80000E944F0C80E00E944F0C63EC86EA96E093
:104E90000E94A8118AE80E944F0C8AE20E944F0CDF
:104EA00064EC86EA96E00E94A8118AE80E944F0C02
:104EB0008AE20E944F0C65EC86EA96E00E94A811F7
:104EC0008CE30E944F0C88E30E944F0C60E286EA5C
:104ED00096E00E94A8116AE386EA96E00E94A81173
:104EE00085E00E944F0C66E286EA96E00E94A811D7
:104EF00081E00E944F0C60EE86EA96E00E94A811C5
:104F000005E714E0D8018D918D010E944F0CB4E0AB
:104F100004381B07B9F761EE86EA96E00E94A811F3
:104F200006E614E035E7E32E34E0F32EF801819134
:104F30008F010E944F0CE016F106C1F768E386EA84
:104F400096E00E94A8116AE286EA96E00E94A81103
:104F500070E060E086EA96E00E94951160E870E0FB
:104F600086EA96E00E9495116BE286EA96E00E943E
:104F7000A81170E060E086EA96E00E94951160E872
:104F800070E086EA96E00E94951163E186EA96E079
:104F90000E94A811E091E006F091E10690818091D5
:104FA000E50680958923808389E28EBD0DB407FED6
:104FB000FDCFE091DE06F091DF0680819091E4065E
:104FC000892B808361E070E080E090E00E94150E04
:104FD00061E070E080E090E00E94150E0E940F17E3
:104FE00080919106909192060E941514E091DE0640
:104FF000F091DF0690818091E4068095892380837B
:1050000000E810E020E830E050E040E070E060E0D0
:1050100086EA96E00E94B8116091D3067091D4069A
:1050200020E030E440E050E086EA96E00E945F1223
:10503000E091DE06F091DF0680819091E406892BF5
:1050400080831092CF06E090D306F090D406809132
:105050009106909192060E941514E091DE06F0915F
:10506000DF0690818091E4068095892380830091FA
:10507000AC061091AD06015011092091AA0630919D
:10508000AB062150310950E040E070E060E086EA74
:1050900096E00E94B8114091AA065091AB0680910B
:1050A000AC069091AD06489F9001499F300D589FE6
:1050B000300D1124032E000C440B550BB70186EA6A
:1050C00096E00E945F12E091DE06F091DF0680819B
:1050D0009091E406892B80838091D9068F3F31F02F
:1050E00060E00E94730D81E08093C10684E994E042
:1050F0000E94A9126EE170E080E090E00E94150E1F
:105100000E940F1770E060E090E080E00E944A1675
:1051100062E0809198060E94BF0D2FB7F8948091AD
:105120007F0590918005A0918105B09182052FBFE8
:10513000805D9740A109B10980939C0690939D06DC
:10514000A0939E06B0939F0687E38093A5062FB792
:10515000F89480917F0590918005A0918105B09190
:1051600082052FBF88519C4FAF4FBF4F80937B0567
:1051700090937C05A0937D05B0937E0510922F053A
:1051800010922E051092E7050E947D0F84E69CE0A8
:1051900090932B0580932A0585E69CE090932D053E
:1051A00080932C050E9464171092C5051092E705A4
:1051B0000E947D0F80E48093830580E090E0A0E171
:1051C000B2E48093900590939105A0939205B093DB
:1051D00093058CEA95ECA7EABDE380938C05909348
:1051E0008D05A0938E05B0938F0567E27FE080E088
:1051F0000E942B118FE692E1A3E0BBE3809394051C
:1052000090939505A0939605B093970587E197EB4A
:10521000A1E5B9E38093840590938505A093860565
:10522000B09387058AE097EDA3EABBE380938805F6
:1052300090938905A0938A05B0938B0560E072E393
:1052400085E00E942B11E0E5F5E01192119225E036
:10525000EA37F207D1F76FEF7FEF8FEF9FEF0E94F2
:105260004A1664EF71E080E090E00E94150E712C08
:10527000612CA3014B5F5F4F912C812CA12CB12C91
:1052800064EBC62E63E4D62EE12CF12C870125E0D9
:1052900030E066E670E080E490E00E948822882496
:1052A0008A94982CA12CB12CE4EBCE2EE2E4DE2ED5
:1052B0009301A30166E670E080E490E00E948822FA
:1052C000A12CB12CF4E3CF2EF3E4DF2EE12CF12C52
:1052D00004EB12E49301A30166E670E080E490E041
:1052E0000E948822A12CB12CB7E8CB2EB3E4DB2E90
:1052F000E12CF12C04E313E49301A30166E670E0D2
:1053000080E490E00E948822A12CB12C94EBC92E5D
:1053100093E4D92EE12CF12C07E813E49301A301C7
:1053200066E670E080E490E00E94882232E0630E3E
:10533000711C46E16416710409F09BCF8091AA06A6
:105340009091AB068134910554F18091AC06909117
:10535000AD06873691051CF18091910690919206D9
:105360000E941514E091DE06F091DF069081809195
:10537000E4068095892380832AE135E346E650E000
:1053800060E470E086EA96E00E94FD11E091DE069E
:10539000F091DF0680819091E406892B808320E4E0
:1053A000E22EF12C30E8C32ED12CA6014E195F0954
:1053B0000AE115E326E630E066E670E0C7010E94E8
:1053C000181464E170E080E090E00E94150E51E056
:1053D000E51AF1088BE2E816F10439F79AE5692E2F
:1053E000712CB301072C000C880B990B0E947132B1
:1053F000AAE18A2EA5E39A2E5B016C01E12CF12C27
:1054000004EB12E424E130E044E150E066E670E0B1
:1054100080E490E00E948822B3016C547F4F072EF5
:10542000000C880B990B0E9471325B016C01E12C1E
:10543000F12C07E813E424E130E044E150E066E6B3
:1054400070E080E490E00E94882292E0690E711C76
:10545000A6EB6A16710429F64CE350E070E060E0B8
:105460008FEF9FEF0E94FA1B68EB7BE080E090E0FB
:105470000E94150EE0E4EE2EF12CF0E8CF2ED12C98
:10548000A6014E195F090FEF1FEF26E630E066E632
:1054900070E0C7010E94181462E070E080E090E0C4
:1054A0000E94150EB1E0EB1AF108E6E2EE16F104E7
:1054B00039F77AE5672E712CB301072C000C880BA5
:1054C000990B0E94713288248A94982C5B016C019C
:1054D000E12CF12C04EB12E429E130E049E150E049
:1054E00066E670E080E490E00E948822B3016C548C
:1054F0007F4F072E000C880B990B0E9471325B01C5
:105500006C01E12CF12C07E813E429E130E049E1DA
:1055100050E066E670E080E490E00E948822F4E1CA
:105520006F0E711C22E2621621E0720629F64AE033
:1055300050E06FEF7FEF90E080E00E94FA1B6FEF8A
:105540007FEF8FEF9FEF0E944A1668EE73E080E0D6
:1055500090E00E94150E70E060E090E080E00E9414
:105560004A16AE014E5D5F4F5AA749A78FB7F89410
:1055700020917F05309180054091810550918205F1
:105580002DA73EA74FA758AB8FBF80917B05909169
:105590007C05A0917D05B0917E05281B390B4A0B37
:1055A0005B0BDA01C901883E9340A105B10508F4FF
:1055B0006EC30E94470E882349F0809199068B3074
:1055C00028F08D3040F085518230A8F160E070E025
:1055D00080EC9FE71CC06091940670E090E080E052
:1055E0000E9471322DEC3CEC4CEC5DE30E94D03219
:1055F0006B017C016091930670E090E080E00E9476
:1056000071329B01AC01C701B6010E9405340E94B2
:10561000E8346B010E94470E882341F0809199067F
:105620008C3009F4C7C1C8F48B3091F160E070E0B0
:1056300080EC9FE755C060919306709194067627A1
:105640006727762790E080E00E946F322DEC3CECDB
:105650004CEC5DE30E94D032DACF8551823030F7D6
:10566000B09095066B2D70E0762F662766277F77C2
:1056700080919606682B90E080E00E946F322DECBE
:105680003CEC4CEC5DE30E94D032B7FE29C0B0C1C7
:105690006091950670E090E080E00E946F324B01CF
:1056A0005C011091960617FF0AC0AC019B0160E0F7
:1056B00070E080E89FEB0E9404344B015C011F7096
:1056C000612F70E090E080E00E9471322DEC3CECA4
:1056D0004CEC5DE30E94D032A50194010E94053498
:1056E0008E010E5D1F4F21E043E00E94902EC80105
:1056F0000E94AE2E4B015C0120910001309101010E
:1057000040910201509103010E946A32882309F4FA
:1057100049C08092000190920101A0920201B092D2
:1057200003014AA54F9359A55F9384ED94E09F939D
:105730008F93E1E0F0E0EC0FFD1FFF93EF930E94E9
:10574000E13520E230E045E450E061E070E081E0E6
:1057500090E00E94E9158CE894E00E94A91211E003
:105760001093BC061093BB0650E040E065E070E08B
:1057700086E090E00E947915CE0101960E94E71B19
:1057800084E894E00E94A9121093BC061093BB0613
:1057900088E897E10E94B61B0F900F900F900F9032
:1057A0000F900F900D2C000CEE08FF08C701B601FA
:1057B0000E9471324B015C0120910401309105017E
:1057C00040910601509107010E946A32882309F432
:1057D00056C08092040190920501A0920601B092F9
:1057E000070120E230E04AE350E061E070E086E447
:1057F00090E00E94E9158CE894E00E94A91281E0F3
:105800008093BC068093BB0650E040E065E070E00A
:105810008AE490E00E947915F7FEECC08DE288A73B
:1058200041E050E0BE01685D7F4F86EA96E00E944D
:10583000D81822273327A9012C193D094E095F09E1
:1058400019A2CE0181967C01CA01B9012AE030E09B
:1058500040E050E00E94D333605DD7016E937D013C
:10586000211531054105510579F7E114F10419F0CD
:10587000C7010E94E71B8AE897E10E94B61B0E94BD
:10588000641780917A05212C312C2101882309F499
:1058900040C18091830511E01093C4058093E60513
:1058A0001092C5051092E70563E085E896E00E9436
:1058B000FC1081E00E94BC0F61E070E080E090E0AD
:1058C0000E94150EB09083051093C405B092E605B2
:1058D0001092C5051092E7050E94F00D6B017C0146
:1058E0008091BE0581119EC081E08093BE058093AA
:1058F000BD059FEF9093BC051092BB058093BA0540
:105900008093990580919905BB0CB82AB0929905AE
:1059100080919805813009F0B2C0109298050E94DC
:10592000F00D6B017C01809199058093BB00809103
:10593000C0059091C105A091C205B091C305892B06
:105940008A2B8B2BA1F00E94F00D0091C0051091C5
:10595000C1052091C2053091C3056C197D098E09DE
:105960009F09061717072807390708F47CC080919C
:10597000BC0083FDD8CF85EC8093BC000E94F00D65
:105980006B017C018091BE05813009F47AC0809161
:10599000BB05823008F097C08091BB05AAE9B5E04D
:1059A000E0E3F5E090E0981709F462C02D912193AF
:1059B0009F5FF9CF70909506672D70E090E080E0D2
:1059C0000E946F324B015C01609196066F7070E02F
:1059D00090E080E00E9471322DEC3CEC4CEC5DE3F9
:1059E0000E94D032A50194010E94053477FE78CE42
:1059F000905876CEA701960119A2FE01B1967F01BB
:105A0000CA01B9012AE030E040E050E00E94D333FF
:105A1000605DD7016E937D0121153105410551056A
:105A200079F723CF8091C0059091C105A091C2055F
:105A3000B091C305892B8A2B8B2B09F451CF0E947F
:105A4000F00D4090C0055090C1056090C205709067
:105A5000C3056C197D098E099F094616570668060D
:105A6000790608F03DCF8091BF050E949B0F80E032
:105A700010922F0580932E05811127C0FFCF85EE50
:105A80007BCF8091C0059091C105A091C205B091D6
:105A9000C305892B8A2B8B2B09F474CF0E94F00D40
:105AA0000091C0051091C1052091C2053091C30538
:105AB0006C197D098E099F090617170728073907F2
:105AC00008F060CFD0CF82E069CF85E896E00E94F1
:105AD000BC10082F85E896E00E94BC10182F81E0CA
